{
  "genesis": {
    "number": "553415",
    "hash": "0x4d7bc82e0d56307094378e1a8fbfa6260986f621de95b5fe68a95248b3ba8efe",
    "nonce": "0x39f5b074e3437f3f",
    "mixHash": "0xc102ad52677c391edab82cc895ca7a7e9fff3eed4fa966ecf7fb61ec1e84bb6b",
    "stateRoot": "0x8f89e79109c19fa00e72b400502448540dc4773ad92dddd341dbba20c710a3b5",
    "miner": "0x877bd459c9b7d8576b44e59e09d076c25946f443",
    "difficulty": "1911202",
    "totalDifficulty": "458361299240",
    "extraData": "0xd883010906846765746888676f312e31332e35856c696e7578",
    "gasLimit": "7842876",
    "timestamp": "1577396195",
    "alloc": {
      "0x531f76bad925f6a925474996c7d738c1008045f6": {
        "balance": "0xde0b6b3a7640000",
        "nonce": "1",
        "code": "0x6060604052361561008a576000357c01000000000000000000000000000000000000000000000000000000009004806301cb3b20146102bf57806329dcb0cf146102cc57806338af3eed146102ed5780636e66f6e9146103245780637a3a0e841461035b5780637b3e5e7b1461037c578063a035b1fe1461039d578063dc0d3dff146103be5761008a565b6102bd5b60003490506040604051908101604052803381526020018281526020015060066000506006600050805480919060010190908154818355818115116101365760020281600202836000526020600020918201910161013591906100ec565b808211156101315760006000820160006101000a81549073ffffffffffffffffffffffffffffffffffffffff02191690556001820160005060009055506001016100ec565b5090565b5b505050815481101561000257906000526020600020906002020160005060008201518160000160006101000a81548173ffffffffffffffffffffffffffffffffffffffff0219169083021790555060208201518160010160005055905050806002600082828250540192505081905550600560009054906101000a900473ffffffffffffffffffffffffffffffffffffffff1673ffffffffffffffffffffffffffffffffffffffff166390b98a11336004600050548404604051837c0100000000000000000000000000000000000000000000000000000000028152600401808373ffffffffffffffffffffffffffffffffffffffff168152602001828152602001925050506020604051808303816000876161da5a03f1156100025750505060405151507fe842aea7a5f1b01049d752008c53c52890b1a6daf660cf39e8eec506112bbdf633826001604051808473ffffffffffffffffffffffffffffffffffffffff168152602001838152602001828152602001935050505060405180910390a15b50565b005b6102ca6004506104c8565b005b6102d760045061043a565b6040518082815260200191505060405180910390f35b6102f8600450610402565b604051808273ffffffffffffffffffffffffffffffffffffffff16815260200191505060405180910390f35b61032f60045061044c565b604051808273ffffffffffffffffffffffffffffffffffffffff16815260200191505060405180910390f35b610366600450610428565b6040518082815260200191505060405180910390f35b610387600450610431565b6040518082815260200191505060405180910390f35b6103a8600450610443565b6040518082815260200191505060405180910390f35b6103cf600480359060200150610472565b604051808373ffffffffffffffffffffffffffffffffffffffff1681526020018281526020019250505060405180910390f35b600060009054906101000a900473ffffffffffffffffffffffffffffffffffffffff1681565b60016000505481565b60026000505481565b60036000505481565b60046000505481565b600560009054906101000a900473ffffffffffffffffffffffffffffffffffffffff1681565b60066000508181548110156100025790600052602060002090600202016000915090508060000160009054906101000a900473ffffffffffffffffffffffffffffffffffffffff16908060010160005054905082565b6000600360005054421015156107d8576001600050546002600050541015156105cf57600060009054906101000a900473ffffffffffffffffffffffffffffffffffffffff1673ffffffffffffffffffffffffffffffffffffffff166000600260005054604051809050600060405180830381858888f19350505050507fe842aea7a5f1b01049d752008c53c52890b1a6daf660cf39e8eec506112bbdf6600060009054906101000a900473ffffffffffffffffffffffffffffffffffffffff166002600050546000604051808473ffffffffffffffffffffffffffffffffffffffff168152602001838152602001828152602001935050505060405180910390a161079d565b7fe842aea7a5f1b01049d752008c53c52890b1a6daf660cf39e8eec506112bbdf66000600b600060405180848152602001838152602001828152602001935050505060405180910390a1600090505b60066000505481101561079c57600660005081815481101561000257906000526020600020906002020160005060000160009054906101000a900473ffffffffffffffffffffffffffffffffffffffff1673ffffffffffffffffffffffffffffffffffffffff166000600660005083815481101561000257906000526020600020906002020160005060010160005054604051809050600060405180830381858888f19350505050507fe842aea7a5f1b01049d752008c53c52890b1a6daf660cf39e8eec506112bbdf6600660005082815481101561000257906000526020600020906002020160005060000160009054906101000a900473ffffffffffffffffffffffffffffffffffffffff166006600050838154811015610002579060005260206000209060020201600050600101600050546000604051808473ffffffffffffffffffffffffffffffffffffffff168152602001838152602001828152602001935050505060405180910390a15b806001019050805061061e565b5b600060009054906101000a900473ffffffffffffffffffffffffffffffffffffffff1673ffffffffffffffffffffffffffffffffffffffff16ff5b5b5056",
        "storage": {
          "0x0000000000000000000000000000000000000000000000000000000000000006": "0x0000000000000000000000000000000000000000000000000000000000000001",
          "0xf652222313e28459528d920b65115c16c04f3efc82aaedc97be59f3f377c0d41": "0x0000000000000000000000000000000000000000000000000000000000000000",
          "0xf652222313e28459528d920b65115c16c04f3efc82aaedc97be59f3f377c0d42": "0x0000000000000000000000000000000000000000000000000000000000000000",
          "0x0000000000000000000000000000000000000000000000000000000000000002": "0x0000000000000000000000000000000000000000000000000de0b6b3a7640000",
          "0x0000000000000000000000000000000000000000000000000000000000000005": "0x000000000000000000000000b49180d443dc4ca6028de0031ac09337891fd8ce",
          "0x0000000000000000000000000000000000000000000000000000000000000004": "0x0000000000000000000000000000000000000000000000000de0b6b3a7640000"
        }
      },
      "0xb49180d443dc4ca6028de0031ac09337891fd8ce": {
        "balance": "0x0",
        "nonce": "0",
        "code": "0x",
        "storage": {}
      },
      "0x877bd459c9b7d8576b44e59e09d076c25946f443": {
        "balance": "0x193e8ba62c3049618988",
        "nonce": "2586",
        "code": "0x",
        "storage": {}
      }
    },
    "config": {
      "networkId": 7,
      "chainId": 63,
      "eip2FBlock": 0,
      "eip7FBlock": 0,
      "eip150Block": 0,
      "eip155Block": 0,
      "eip160Block": 0,
      "eip161FBlock": 0,
      "eip170FBlock": 0,
      "eip100FBlock": 0,
      "eip140FBlock": 0,
      "eip198FBlock": 0,
      "eip211FBlock": 0,
      "eip212FBlock": 0,
      "eip213FBlock": 0,
      "eip214FBlock": 0,
      "eip658FBlock": 0,
      "eip145FBlock": 301243,
      "eip1014FBlock": 301243,
      "eip1052FBlock": 301243,
      "eip152FBlock": 999983,
      "eip1108FBlock": 999983,
      "eip1344FBlock": 999983,
      "eip1884FBlock": 999983,
      "eip2028FBlock": 999983,
      "eip2200FBlock": 999983,
      "ecip1017FBlock": 0,
      "ecip1017EraRounds": 2000000,
      "ecip1099FBlock": 2520000,
      "ecbp1100FBlock": 2380000,
      "disposalBlock": 0,
      "ethash": {},
      "requireBlockHashes": {
          "840013": "0x2ceada2b191879b71a5bcf2241dd9bc50d6d953f1640e62f9c2cee941dc61c9d",
          "840014": "0x8ec29dd692c8985b82410817bac232fc82805b746538d17bc924624fe74a0fcf"
        }
    }
  },
  "context": {
    "number": "553416",
    "difficulty": "1909336",
    "timestamp": "1577396224",
    "gasLimit": "7835218",
    "miner": "0x877bd459c9b7d8576b44e59e09d076c25946f443"
  },
  "input": "0xf870820a1a85e8d4a5100083040b2894531f76bad925f6a925474996c7d738c1008045f6880de0b6b3a76400008081a2a043a3a4e881e81a4e17012b8bf07989bc6778d2abfcf9172eeb86fbbcfec9abd2a021e456885411ae466392a23618f7fca99a0e4a43e5e317ca998f64198541a5cf",
  "result": {
    "0x531f76bad925f6a925474996c7d738c1008045f6": {
        "balance": {
            "*": {
                "from": "0xde0b6b3a7640000",
                "to": "0x1bc16d674ec80000"
            }
        },
        "code": "=",
        "nonce": "=",
        "storage": {
            "0x0000000000000000000000000000000000000000000000000000000000000002": {
                "*": {
                    "from": "0x0000000000000000000000000000000000000000000000000de0b6b3a7640000",
                    "to": "0x0000000000000000000000000000000000000000000000001bc16d674ec80000"
                }
            },
            "0x0000000000000000000000000000000000000000000000000000000000000006": {
                "*": {
                    "from": "0x0000000000000000000000000000000000000000000000000000000000000001",
                    "to": "0x0000000000000000000000000000000000000000000000000000000000000002"
                }
            },
            "0xf652222313e28459528d920b65115c16c04f3efc82aaedc97be59f3f377c0d41": {
                "*": {
                    "from": "0x0000000000000000000000000000000000000000000000000000000000000000",
                    "to": "0x000000000000000000000000877bd459c9b7d8576b44e59e09d076c25946f443"
                }
            },
            "0xf652222313e28459528d920b65115c16c04f3efc82aaedc97be59f3f377c0d42": {
                "*": {
                    "from": "0x0000000000000000000000000000000000000000000000000000000000000000",
                    "to": "0x0000000000000000000000000000000000000000000000000de0b6b3a7640000"
                }
            }
        }
    },
    "0x877bd459c9b7d8576b44e59e09d076c25946f443": {
        "balance": {
            "*": {
                "from": "0x193e8ba62c3049618988",
                "to": "0x193e7dc5757ca1fd8988"
            }
        },
        "code": "=",
        "nonce": {
            "*": {
                "from": "0xa1a",
                "to": "0xa1b"
            }
        },
        "storage": {}
    }
  }
}